{
  "_format": "hh-sol-artifact-1",
  "contractName": "Token",
  "sourceName": "contracts/Token.sol",
  "abi": [
    {
      "inputs": [],
      "stateMutability": "nonpayable",
      "type": "constructor"
    },
    {
      "anonymous": false,
      "inputs": [
        {
          "indexed": true,
          "internalType": "address",
          "name": "from",
          "type": "address"
        },
        {
          "indexed": true,
          "internalType": "address",
          "name": "to",
          "type": "address"
        },
        {
          "indexed": false,
          "internalType": "uint256",
          "name": "amount",
          "type": "uint256"
        }
      ],
      "name": "Transfer",
      "type": "event"
    },
    {
      "inputs": [],
      "name": "amount",
      "outputs": [
        {
          "internalType": "uint256",
          "name": "",
          "type": "uint256"
        }
      ],
      "stateMutability": "view",
      "type": "function"
    },
    {
      "inputs": [
        {
          "internalType": "address",
          "name": "_add",
          "type": "address"
        }
      ],
      "name": "getTokenAmt",
      "outputs": [
        {
          "internalType": "uint256",
          "name": "",
          "type": "uint256"
        }
      ],
      "stateMutability": "view",
      "type": "function"
    },
    {
      "inputs": [],
      "name": "name",
      "outputs": [
        {
          "internalType": "string",
          "name": "",
          "type": "string"
        }
      ],
      "stateMutability": "view",
      "type": "function"
    },
    {
      "inputs": [],
      "name": "owner",
      "outputs": [
        {
          "internalType": "address",
          "name": "",
          "type": "address"
        }
      ],
      "stateMutability": "view",
      "type": "function"
    },
    {
      "inputs": [],
      "name": "symbol",
      "outputs": [
        {
          "internalType": "string",
          "name": "",
          "type": "string"
        }
      ],
      "stateMutability": "view",
      "type": "function"
    },
    {
      "inputs": [
        {
          "internalType": "address",
          "name": "_to",
          "type": "address"
        },
        {
          "internalType": "uint256",
          "name": "_amount",
          "type": "uint256"
        }
      ],
      "name": "transfer",
      "outputs": [
        {
          "internalType": "string",
          "name": "",
          "type": "string"
        }
      ],
      "stateMutability": "nonpayable",
      "type": "function"
    }
  ],
  "bytecode": "0x60806040526040518060400160405280600d81526020017f4861726448617420546f6b656e00000000000000000000000000000000000000815250600090816200004a9190620003ad565b506103e86001556040518060400160405280600381526020017f484854000000000000000000000000000000000000000000000000000000000081525060029081620000979190620003ad565b50348015620000a557600080fd5b5033600360006101000a81548173ffffffffffffffffffffffffffffffffffffffff021916908373ffffffffffffffffffffffffffffffffffffffff160217905550600154600460003373ffffffffffffffffffffffffffffffffffffffff1673ffffffffffffffffffffffffffffffffffffffff1681526020019081526020016000208190555062000494565b600081519050919050565b7f4e487b7100000000000000000000000000000000000000000000000000000000600052604160045260246000fd5b7f4e487b7100000000000000000000000000000000000000000000000000000000600052602260045260246000fd5b60006002820490506001821680620001b557607f821691505b602082108103620001cb57620001ca6200016d565b5b50919050565b60008190508160005260206000209050919050565b60006020601f8301049050919050565b600082821b905092915050565b600060088302620002357fffffffffffffffffffffffffffffffffffffffffffffffffffffffffffffffff82620001f6565b620002418683620001f6565b95508019841693508086168417925050509392505050565b6000819050919050565b6000819050919050565b60006200028e62000288620002828462000259565b62000263565b62000259565b9050919050565b6000819050919050565b620002aa836200026d565b620002c2620002b98262000295565b84845462000203565b825550505050565b600090565b620002d9620002ca565b620002e68184846200029f565b505050565b5b818110156200030e5762000302600082620002cf565b600181019050620002ec565b5050565b601f8211156200035d576200032781620001d1565b6200033284620001e6565b8101602085101562000342578190505b6200035a6200035185620001e6565b830182620002eb565b50505b505050565b600082821c905092915050565b6000620003826000198460080262000362565b1980831691505092915050565b60006200039d83836200036f565b9150826002028217905092915050565b620003b88262000133565b67ffffffffffffffff811115620003d457620003d36200013e565b5b620003e082546200019c565b620003ed82828562000312565b600060209050601f83116001811462000425576000841562000410578287015190505b6200041c85826200038f565b8655506200048c565b601f1984166200043586620001d1565b60005b828110156200045f5784890151825560018201915060208501945060208101905062000438565b868310156200047f57848901516200047b601f8916826200036f565b8355505b6001600288020188555050505b505050505050565b6109d280620004a46000396000f3fe608060405234801561001057600080fd5b50600436106100625760003560e01c806306fdde031461006757806322283dac146100855780638da5cb5b146100b557806395d89b41146100d3578063a9059cbb146100f1578063aa8c217c14610121575b600080fd5b61006f61013f565b60405161007c919061065e565b60405180910390f35b61009f600480360381019061009a91906106e3565b6101cd565b6040516100ac9190610729565b60405180910390f35b6100bd610216565b6040516100ca9190610753565b60405180910390f35b6100db61023c565b6040516100e8919061065e565b60405180910390f35b61010b6004803603810190610106919061079a565b6102ca565b604051610118919061065e565b60405180910390f35b6101296104dc565b6040516101369190610729565b60405180910390f35b6000805461014c90610809565b80601f016020809104026020016040519081016040528092919081815260200182805461017890610809565b80156101c55780601f1061019a576101008083540402835291602001916101c5565b820191906000526020600020905b8154815290600101906020018083116101a857829003601f168201915b505050505081565b6000600460008373ffffffffffffffffffffffffffffffffffffffff1673ffffffffffffffffffffffffffffffffffffffff168152602001908152602001600020549050919050565b600360009054906101000a900473ffffffffffffffffffffffffffffffffffffffff1681565b6002805461024990610809565b80601f016020809104026020016040519081016040528092919081815260200182805461027590610809565b80156102c25780601f10610297576101008083540402835291602001916102c2565b820191906000526020600020905b8154815290600101906020018083116102a557829003601f168201915b505050505081565b606061030b6040518060400160405280601181526020017f53656e64696e6720257320746f6b656e73000000000000000000000000000000815250836104e2565b81600460003373ffffffffffffffffffffffffffffffffffffffff1673ffffffffffffffffffffffffffffffffffffffff16815260200190815260200160002054101561038d576040517f08c379a000000000000000000000000000000000000000000000000000000000815260040161038490610886565b60405180910390fd5b81600460003373ffffffffffffffffffffffffffffffffffffffff1673ffffffffffffffffffffffffffffffffffffffff16815260200190815260200160002060008282546103dc91906108d5565b9250508190555081600460008573ffffffffffffffffffffffffffffffffffffffff1673ffffffffffffffffffffffffffffffffffffffff16815260200190815260200160002060008282546104329190610909565b925050819055508273ffffffffffffffffffffffffffffffffffffffff163373ffffffffffffffffffffffffffffffffffffffff167fddf252ad1be2c89b69c2b068fc378daa952ba7f163c4a11628f55a4df523b3ef846040516104969190610729565b60405180910390a36040518060400160405280601881526020017f5472616e73666572726564205375636365737366756c6c790000000000000000815250905092915050565b60015481565b61057a82826040516024016104f892919061093d565b6040516020818303038152906040527fb60e72cc000000000000000000000000000000000000000000000000000000007bffffffffffffffffffffffffffffffffffffffffffffffffffffffff19166020820180517bffffffffffffffffffffffffffffffffffffffffffffffffffffffff838183161783525050505061057e565b5050565b6105958161058d6105986105b9565b63ffffffff16565b50565b60006a636f6e736f6c652e6c6f679050600080835160208501845afa505050565b6105c4819050919050565b6105cc61096d565b565b600081519050919050565b600082825260208201905092915050565b60005b838110156106085780820151818401526020810190506105ed565b60008484015250505050565b6000601f19601f8301169050919050565b6000610630826105ce565b61063a81856105d9565b935061064a8185602086016105ea565b61065381610614565b840191505092915050565b600060208201905081810360008301526106788184610625565b905092915050565b600080fd5b600073ffffffffffffffffffffffffffffffffffffffff82169050919050565b60006106b082610685565b9050919050565b6106c0816106a5565b81146106cb57600080fd5b50565b6000813590506106dd816106b7565b92915050565b6000602082840312156106f9576106f8610680565b5b6000610707848285016106ce565b91505092915050565b6000819050919050565b61072381610710565b82525050565b600060208201905061073e600083018461071a565b92915050565b61074d816106a5565b82525050565b60006020820190506107686000830184610744565b92915050565b61077781610710565b811461078257600080fd5b50565b6000813590506107948161076e565b92915050565b600080604083850312156107b1576107b0610680565b5b60006107bf858286016106ce565b92505060206107d085828601610785565b9150509250929050565b7f4e487b7100000000000000000000000000000000000000000000000000000000600052602260045260246000fd5b6000600282049050600182168061082157607f821691505b602082108103610834576108336107da565b5b50919050565b7f4e6f7420656e6f75676820546f6b656e00000000000000000000000000000000600082015250565b60006108706010836105d9565b915061087b8261083a565b602082019050919050565b6000602082019050818103600083015261089f81610863565b9050919050565b7f4e487b7100000000000000000000000000000000000000000000000000000000600052601160045260246000fd5b60006108e082610710565b91506108eb83610710565b9250828203905081811115610903576109026108a6565b5b92915050565b600061091482610710565b915061091f83610710565b9250828201905080821115610937576109366108a6565b5b92915050565b600060408201905081810360008301526109578185610625565b9050610966602083018461071a565b9392505050565b7f4e487b7100000000000000000000000000000000000000000000000000000000600052605160045260246000fdfea264697066735822122027d830dce6c8782c011b7931de509cd2c76a19185c2f955cade18a899abd9b2c64736f6c63430008180033",
  "linkReferences": {},
  "deployedLinkReferences": {}
}